{
  "contractName": "Crud",
  "abi": [
    {
      "constant": true,
      "inputs": [],
      "name": "contractOwner",
      "outputs": [
        {
          "name": "",
          "type": "address"
        }
      ],
      "payable": false,
      "stateMutability": "view",
      "type": "function"
    },
    {
      "constant": true,
      "inputs": [
        {
          "name": "userAddress",
          "type": "address"
        }
      ],
      "name": "userExists",
      "outputs": [
        {
          "name": "exists",
          "type": "bool"
        }
      ],
      "payable": false,
      "stateMutability": "view",
      "type": "function"
    },
    {
      "constant": false,
      "inputs": [
        {
          "name": "userAddress",
          "type": "address"
        },
        {
          "name": "email",
          "type": "string"
        }
      ],
      "name": "insertUser",
      "outputs": [
        {
          "name": "index",
          "type": "uint256"
        }
      ],
      "payable": false,
      "stateMutability": "nonpayable",
      "type": "function"
    },
    {
      "constant": true,
      "inputs": [
        {
          "name": "userAddress",
          "type": "address"
        }
      ],
      "name": "getUser",
      "outputs": [
        {
          "name": "email",
          "type": "string"
        },
        {
          "name": "index",
          "type": "uint256"
        }
      ],
      "payable": false,
      "stateMutability": "view",
      "type": "function"
    },
    {
      "constant": true,
      "inputs": [],
      "name": "getUserCount",
      "outputs": [
        {
          "name": "count",
          "type": "uint256"
        }
      ],
      "payable": false,
      "stateMutability": "view",
      "type": "function"
    },
    {
      "constant": false,
      "inputs": [
        {
          "name": "userAddress",
          "type": "address"
        },
        {
          "name": "email",
          "type": "string"
        }
      ],
      "name": "updateUserEmail",
      "outputs": [
        {
          "name": "success",
          "type": "bool"
        }
      ],
      "payable": false,
      "stateMutability": "nonpayable",
      "type": "function"
    },
    {
      "constant": false,
      "inputs": [
        {
          "name": "userAddress",
          "type": "address"
        }
      ],
      "name": "deleteUser",
      "outputs": [
        {
          "name": "index",
          "type": "uint256"
        }
      ],
      "payable": false,
      "stateMutability": "nonpayable",
      "type": "function"
    }
  ],
  "bytecode": "0x608060405234801561001057600080fd5b50610c38806100206000396000f3fe608060405234801561001057600080fd5b506004361061009a576000357c0100000000000000000000000000000000000000000000000000000000900480636f77926b116100785780636f77926b14610246578063969a2b391461030a578063b5cb15f7146103f9578063ce606ee0146104175761009a565b80630e666e491461009f5780635c60f226146100fb57806364319ae614610153575b600080fd5b6100e1600480360360208110156100b557600080fd5b81019080803573ffffffffffffffffffffffffffffffffffffffff169060200190929190505050610461565b604051808215151515815260200191505060405180910390f35b61013d6004803603602081101561011157600080fd5b81019080803573ffffffffffffffffffffffffffffffffffffffff169060200190929190505050610529565b6040518082815260200191505060405180910390f35b61022c6004803603604081101561016957600080fd5b81019080803573ffffffffffffffffffffffffffffffffffffffff169060200190929190803590602001906401000000008111156101a657600080fd5b8201836020820111156101b857600080fd5b803590602001918460018302840111640100000000831117156101da57600080fd5b91908080601f016020809104026020016040519081016040528093929190818152602001838380828437600081840152601f19601f8201169050808301925050505050505091929192905050506106ee565b604051808215151515815260200191505060405180910390f35b6102886004803603602081101561025c57600080fd5b81019080803573ffffffffffffffffffffffffffffffffffffffff1690602001909291905050506107cc565b6040518080602001838152602001828103825284818151815260200191508051906020019080838360005b838110156102ce5780820151818401526020810190506102b3565b50505050905090810190601f1680156102fb5780820380516001836020036101000a031916815260200191505b50935050505060405180910390f35b6103e36004803603604081101561032057600080fd5b81019080803573ffffffffffffffffffffffffffffffffffffffff1690602001909291908035906020019064010000000081111561035d57600080fd5b82018360208201111561036f57600080fd5b8035906020019184600183028401116401000000008311171561039157600080fd5b91908080601f016020809104026020016040519081016040528093929190818152602001838380828437600081840152601f19601f820116905080830192505050505050509192919290505050610975565b6040518082815260200191505060405180910390f35b610401610b09565b6040518082815260200191505060405180910390f35b61041f610b16565b604051808273ffffffffffffffffffffffffffffffffffffffff1673ffffffffffffffffffffffffffffffffffffffff16815260200191505060405180910390f35b60008060028054905014156104795760009050610524565b8173ffffffffffffffffffffffffffffffffffffffff166002600160008573ffffffffffffffffffffffffffffffffffffffff1673ffffffffffffffffffffffffffffffffffffffff16815260200190815260200160002060010154815481106104df57fe5b9060005260206000200160009054906101000a900473ffffffffffffffffffffffffffffffffffffffff1673ffffffffffffffffffffffffffffffffffffffff161490505b919050565b600061053482610461565b6105a6576040517f08c379a000000000000000000000000000000000000000000000000000000000815260040180806020018281038252600f8152602001807f75736572206e6f7420657869737473000000000000000000000000000000000081525060200191505060405180910390fd5b6000600160008473ffffffffffffffffffffffffffffffffffffffff1673ffffffffffffffffffffffffffffffffffffffff168152602001908152602001600020600101549050600060026001600280549050038154811061060457fe5b9060005260206000200160009054906101000a900473ffffffffffffffffffffffffffffffffffffffff169050806002838154811061063f57fe5b9060005260206000200160006101000a81548173ffffffffffffffffffffffffffffffffffffffff021916908373ffffffffffffffffffffffffffffffffffffffff16021790555081600160008373ffffffffffffffffffffffffffffffffffffffff1673ffffffffffffffffffffffffffffffffffffffff1681526020019081526020016000206001018190555060028054809190600190036106e39190610b3b565b508192505050919050565b60006106f983610461565b61076b576040517f08c379a000000000000000000000000000000000000000000000000000000000815260040180806020018281038252600f8152602001807f75736572206e6f7420657869737473000000000000000000000000000000000081525060200191505060405180910390fd5b81600160008573ffffffffffffffffffffffffffffffffffffffff1673ffffffffffffffffffffffffffffffffffffffff16815260200190815260200160002060000190805190602001906107c1929190610b67565b506001905092915050565b606060006107d983610461565b61084b576040517f08c379a000000000000000000000000000000000000000000000000000000000815260040180806020018281038252600f8152602001807f75736572206e6f7420657869737473000000000000000000000000000000000081525060200191505060405180910390fd5b600160008473ffffffffffffffffffffffffffffffffffffffff1673ffffffffffffffffffffffffffffffffffffffff168152602001908152602001600020600001600160008573ffffffffffffffffffffffffffffffffffffffff1673ffffffffffffffffffffffffffffffffffffffff16815260200190815260200160002060010154818054600181600116156101000203166002900480601f0160208091040260200160405190810160405280929190818152602001828054600181600116156101000203166002900480156109655780601f1061093a57610100808354040283529160200191610965565b820191906000526020600020905b81548152906001019060200180831161094857829003601f168201915b5050505050915091509150915091565b600061098083610461565b156109f3576040517f08c379a000000000000000000000000000000000000000000000000000000000815260040180806020018281038252600b8152602001807f757365722065786973747300000000000000000000000000000000000000000081525060200191505060405180910390fd5b81600160008573ffffffffffffffffffffffffffffffffffffffff1673ffffffffffffffffffffffffffffffffffffffff1681526020019081526020016000206000019080519060200190610a49929190610b67565b50600160028490806001815401808255809150509060018203906000526020600020016000909192909190916101000a81548173ffffffffffffffffffffffffffffffffffffffff021916908373ffffffffffffffffffffffffffffffffffffffff16021790555003600160008573ffffffffffffffffffffffffffffffffffffffff1673ffffffffffffffffffffffffffffffffffffffff16815260200190815260200160002060010181905550600160028054905003905092915050565b6000600280549050905090565b6000809054906101000a900473ffffffffffffffffffffffffffffffffffffffff1681565b815481835581811115610b6257818360005260206000209182019101610b619190610be7565b5b505050565b828054600181600116156101000203166002900490600052602060002090601f016020900481019282601f10610ba857805160ff1916838001178555610bd6565b82800160010185558215610bd6579182015b82811115610bd5578251825591602001919060010190610bba565b5b509050610be39190610be7565b5090565b610c0991905b80821115610c05576000816000905550600101610bed565b5090565b9056fea165627a7a723058207a452d53466f90b97aa6e09daa887f66e538f911ba8e906007efbbd01547bd3f0029",
  "source": "pragma solidity 0.5.7;\r\n\r\ncontract Crud {\r\n\r\n    address payable public contractOwner;\r\n\r\n    struct User {\r\n        string email;\r\n        uint index;\r\n    }\r\n\r\n    mapping(address => User) private users;\r\n\r\n    address[] private userIndex;\r\n\r\n    function userExists(address userAddress) public view returns(bool exists) {\r\n        if(userIndex.length == 0) {\r\n            return false;\r\n        }\r\n\r\n        return(userIndex[users[userAddress].index] == userAddress);\r\n    }\r\n\r\n    function insertUser(address userAddress, string memory email) public returns (uint index) {\r\n        require(!userExists(userAddress), 'user exists');\r\n        users[userAddress].email = email;\r\n        users[userAddress].index = userIndex.push(userAddress) - 1;\r\n        return userIndex.length - 1;\r\n    }\r\n\r\n    function getUser(address userAddress) public view returns(string memory email, uint index) {\r\n        require (userExists(userAddress), \"user not exists\");\r\n        return (users[userAddress].email, users[userAddress].index);\r\n    }\r\n\r\n    function getUserCount() public view returns (uint count) {\r\n        return userIndex.length;\r\n    }\r\n\r\n    function updateUserEmail(address userAddress, string memory email) public returns(bool success){\r\n        require (userExists(userAddress), \"user not exists\");\r\n        users[userAddress].email = email;\r\n        return true;\r\n    }\r\n\r\n    function deleteUser(address userAddress) public returns (uint index){\r\n        require (userExists(userAddress), \"user not exists\");\r\n        uint rowToDelete = users[userAddress].index;\r\n        address keyToMove = userIndex[userIndex.length-1];\r\n        userIndex[rowToDelete] = keyToMove;\r\n        users[keyToMove].index = rowToDelete;\r\n        userIndex.length--;\r\n        return rowToDelete;\r\n    }\r\n}",
  "sourcePath": "C:/Files/Repo/r2Git/r2.blockchain.crud/contracts/Crud.sol",
  "compiler": {
    "name": "solc",
    "version": "0.5.7+commit.6da8b019.Emscripten.clang"
  },
  "schemaVersion": "3.0.6",
  "updatedAt": "2019-06-29T17:00:22.406Z",
  "devdoc": {
    "methods": {}
  },
  "userdoc": {
    "methods": {}
  }
}